{
  "contractName": "Blackjack",
  "abi": [
    {
      "constant": true,
      "inputs": [
        {
          "name": "",
          "type": "uint256"
        }
      ],
      "name": "games",
      "outputs": [
        {
          "name": "bet",
          "type": "uint256"
        },
        {
          "name": "player",
          "type": "address"
        },
        {
          "name": "payout",
          "type": "uint256"
        },
        {
          "name": "gameId",
          "type": "uint256"
        }
      ],
      "payable": false,
      "stateMutability": "view",
      "type": "function"
    },
    {
      "constant": true,
      "inputs": [],
      "name": "gameCount",
      "outputs": [
        {
          "name": "",
          "type": "uint256"
        }
      ],
      "payable": false,
      "stateMutability": "view",
      "type": "function"
    },
    {
      "inputs": [],
      "payable": false,
      "stateMutability": "nonpayable",
      "type": "function",
      "constant": false,
      "name": "checkPayout",
      "outputs": [
        {
          "name": "",
          "type": "uint256"
        }
      ]
    },
    {
      "payable": false,
      "stateMutability": "nonpayable",
      "type": "function",
      "constant": false,
      "inputs": [],
      "name": "redeem",
      "outputs": []
    },
    {
      "constant": false,
      "inputs": [],
      "name": "startGame",
      "outputs": [],
      "payable": true,
      "stateMutability": "payable",
      "type": "function"
    },
    {
      "constant": false,
      "inputs": [],
      "name": "ifWin",
      "outputs": [],
      "payable": false,
      "stateMutability": "nonpayable",
      "type": "function"
    },
    {
      "inputs": [],
      "payable": true,
      "stateMutability": "payable",
      "type": "constructor"
    },
    {
      "payable": true,
      "stateMutability": "payable",
      "type": "fallback"
    }
  ],
  "bytecode": "0x6060604052610021600061002e64010000000002610314176401000000009004565b60006003819055506100d4565b3360008083815260200190815260200160002060010160006101000a81548173ffffffffffffffffffffffffffffffffffffffff021916908373ffffffffffffffffffffffffffffffffffffffff1602179055503460008083815260200190815260200160002060000181905550600080600083815260200190815260200160002060020181905550806000808381526020019081526020016000206003018190555050565b6105fc806100e36000396000f300606060405260043610610078576000357c0100000000000000000000000000000000000000000000000000000000900463ffffffff168063117a5b90146100825780634d1975b4146100fa578063b145c01314610123578063be040fb01461014c578063d65ab5f214610161578063f88e4e141461016b575b610080610180565b005b341561008d57600080fd5b6100a360048080359060200190919050506101e3565b604051808581526020018473ffffffffffffffffffffffffffffffffffffffff1673ffffffffffffffffffffffffffffffffffffffff16815260200183815260200182815260200194505050505060405180910390f35b341561010557600080fd5b61010d610233565b6040518082815260200191505060405180910390f35b341561012e57600080fd5b610136610239565b6040518082815260200191505060405180910390f35b341561015757600080fd5b61015f610280565b005b610169610180565b005b341561017657600080fd5b61017e6102ca565b005b6000600360008154600101919050819055905061019c81610314565b80600160003373ffffffffffffffffffffffffffffffffffffffff1673ffffffffffffffffffffffffffffffffffffffff1681526020019081526020016000208190555050565b60006020528060005260406000206000915090508060000154908060010160009054906101000a900473ffffffffffffffffffffffffffffffffffffffff16908060020154908060030154905084565b60035481565b6000600260003373ffffffffffffffffffffffffffffffffffffffff1673ffffffffffffffffffffffffffffffffffffffff16815260200190815260200160002054905090565b6102c8600160003373ffffffffffffffffffffffffffffffffffffffff1673ffffffffffffffffffffffffffffffffffffffff168152602001908152602001600020546103ba565b565b610312600160003373ffffffffffffffffffffffffffffffffffffffff1673ffffffffffffffffffffffffffffffffffffffff168152602001908152602001600020546104ff565b565b3360008083815260200190815260200160002060010160006101000a81548173ffffffffffffffffffffffffffffffffffffffff021916908373ffffffffffffffffffffffffffffffffffffffff1602179055503460008083815260200190815260200160002060000181905550600080600083815260200190815260200160002060020181905550806000808381526020019081526020016000206003018190555050565b6000600260003373ffffffffffffffffffffffffffffffffffffffff1673ffffffffffffffffffffffffffffffffffffffff1681526020019081526020016000205411156104fc5760008082815260200190815260200160002060010160009054906101000a900473ffffffffffffffffffffffffffffffffffffffff1673ffffffffffffffffffffffffffffffffffffffff166108fc600260003373ffffffffffffffffffffffffffffffffffffffff1673ffffffffffffffffffffffffffffffffffffffff168152602001908152602001600020549081150290604051600060405180830381858888f1935050505015156104b657600080fd5b6000600260003373ffffffffffffffffffffffffffffffffffffffff1673ffffffffffffffffffffffffffffffffffffffff168152602001908152602001600020819055505b50565b60008060008381526020019081526020016000206002015414156105cd57600260008083815260200190815260200160002060000154026000808381526020019081526020016000206002018190555060008060008381526020019081526020016000206000018190555060008082815260200190815260200160002060020154600260003373ffffffffffffffffffffffffffffffffffffffff1673ffffffffffffffffffffffffffffffffffffffff168152602001908152602001600020600082825401925050819055505b505600a165627a7a72305820da8bf9c022b9e4665766fa4c2aa3d9e85bd34906a94ba63e28c8b7c49381e6340029",
  "source": "pragma solidity ^0.4.2;\r\n\r\ncontract Blackjack {\r\n\r\n    struct Game {\r\n        uint256 bet;\r\n        address player;\r\n        uint256 payout;\r\n        uint gameId;\r\n    }\r\n\r\n    mapping(uint => Game) public games;\r\n    mapping(address => uint256) currentGame;\r\n    mapping(address => uint256) cummulativePayout;\r\n    uint public gameCount;\r\n\r\n    function Blackjack() payable {\r\n        init(0);\r\n        gameCount = 0;\r\n    }\r\n\r\n    function () payable {\r\n        startGame();\r\n    }\r\n\r\n    function init(uint gameId) private {\r\n        games[gameId].player = msg.sender;\r\n        games[gameId].bet = msg.value;\r\n        games[gameId].payout = 0;\r\n        games[gameId].gameId = gameId;\r\n    }\r\n\r\n    function addPayout(uint gameId) private {\r\n        if (games[gameId].payout == 0) {\r\n            games[gameId].payout = games[gameId].bet * 2;\r\n            games[gameId].bet = 0;\r\n            cummulativePayout[msg.sender] += games[gameId].payout;\r\n        }\r\n    }\r\n\r\n    function closeGame(uint gameId) private {\r\n        if (cummulativePayout[msg.sender] > 0) {\r\n            games[gameId].player.transfer(cummulativePayout[msg.sender]);\r\n            cummulativePayout[msg.sender] = 0;\r\n        }\r\n    }\r\n\r\n    //call this function to set the bet, game Id, player\r\n    function startGame() payable {\r\n        uint256 newGameID = ++gameCount;\r\n        init(newGameID);\r\n        currentGame[msg.sender] = newGameID;\r\n    }\r\n\r\n    //Call this function on each win to increase cummulative cashout by bet X 2\r\n    function ifWin() {\r\n        addPayout(currentGame[msg.sender]);\r\n    }\r\n\r\n    //Cashout all money won by an account\r\n    function redeem() {\r\n        closeGame(currentGame[msg.sender]);\r\n    }\r\n\r\n    function checkPayout() returns(uint256) {\r\n        return cummulativePayout[msg.sender];\r\n    }\r\n\r\n}",
  "sourcePath": "F:\\Programming\\Demo-Blockchain\\dapp-project\\contracts\\Blackjack.sol",
  "compiler": {
    "name": "solc",
    "version": "0.4.18+commit.9cf6e910.Emscripten.clang"
  },
  "schemaVersion": "1.0.1",
  "updatedAt": "2018-03-29T10:36:34.071Z"
}