{
  "contractName": "Blackjack",
  "abi": [
    {
      "constant": false,
      "inputs": [],
      "name": "redeem",
      "outputs": [],
      "payable": false,
      "stateMutability": "nonpayable",
      "type": "function"
    },
    {
      "constant": false,
      "inputs": [],
      "name": "startGame",
      "outputs": [],
      "payable": true,
      "stateMutability": "payable",
      "type": "function"
    },
    {
      "inputs": [],
      "payable": true,
      "stateMutability": "payable",
      "type": "constructor"
    },
    {
      "payable": true,
      "stateMutability": "payable",
      "type": "fallback"
    }
  ],
  "bytecode": "0x606060405233600260006101000a81548173ffffffffffffffffffffffffffffffffffffffff021916908373ffffffffffffffffffffffffffffffffffffffff16021790555061019e806100546000396000f30060606040526004361061004c576000357c0100000000000000000000000000000000000000000000000000000000900463ffffffff168063be040fb014610056578063d65ab5f21461006b575b610054610075565b005b341561006157600080fd5b61006961007f565b005b610073610075565b005b61007d610089565b565b6100876100db565b565b33600160006101000a81548173ffffffffffffffffffffffffffffffffffffffff021916908373ffffffffffffffffffffffffffffffffffffffff160217905550346000819055506000600381905550565b6002600054026003819055506100ef6100f1565b565b6000600354111561017057600160009054906101000a900473ffffffffffffffffffffffffffffffffffffffff1673ffffffffffffffffffffffffffffffffffffffff166108fc6003549081150290604051600060405180830381858888f19350505050151561016057600080fd5b6000600381905550600080819055505b5600a165627a7a7230582035cb380389b5f3dd14da83ae89a5d816a3d0602b1378e4d1f20ea9e278c8c2ee0029",
  "source": "pragma solidity ^0.4.2;\r\n\r\ncontract Blackjack {\r\n\r\n    uint256 bet;\r\n    address player;\r\n    address dealer;\r\n    uint256 payout;\r\n    \r\n    function Blackjack() payable {\r\n        dealer = msg.sender;\r\n    }\r\n\r\n    function () payable {\r\n        startGame();\r\n    }\r\n   \r\n    function init() private {\r\n        player = msg.sender;\r\n        bet = msg.value;\r\n        payout = 0;\r\n    }\r\n    \r\n    function endGame() private {\r\n        payout = bet*2;\r\n        closeGame();\r\n    }\r\n\r\n    function closeGame() private {\r\n        if (payout > 0) {   \r\n            player.transfer(payout);\r\n            payout = 0;\r\n            bet = 0;\r\n        }\r\n    }\r\n    \r\n    function startGame() payable {\r\n         init();\r\n    }\r\n    \r\n    function redeem() {\r\n        endGame();\r\n    }\r\n}\r\n",
  "sourcePath": "F:\\Programming\\Demo-Blockchain\\dapp-project\\contracts\\Blackjack.sol",
  "compiler": {
    "name": "solc",
    "version": "0.4.18+commit.9cf6e910.Emscripten.clang"
  },
  "schemaVersion": "1.0.1",
  "updatedAt": "2018-03-11T14:29:49.079Z"
}