{
  "contractName": "RealEstate",
  "abi": [
    {
      "constant": false,
      "inputs": [
        {
          "name": "_name",
          "type": "bytes32"
        },
        {
          "name": "_location",
          "type": "bytes32"
        },
        {
          "name": "_price",
          "type": "uint256"
        }
      ],
      "name": "addHouse",
      "outputs": [],
      "payable": false,
      "stateMutability": "nonpayable",
      "type": "function"
    },
    {
      "constant": true,
      "inputs": [
        {
          "name": "",
          "type": "uint256"
        }
      ],
      "name": "houses",
      "outputs": [
        {
          "name": "id",
          "type": "uint256"
        },
        {
          "name": "name",
          "type": "bytes32"
        },
        {
          "name": "location",
          "type": "bytes32"
        },
        {
          "name": "price",
          "type": "uint256"
        },
        {
          "name": "seller",
          "type": "address"
        },
        {
          "name": "buyer",
          "type": "address"
        }
      ],
      "payable": false,
      "stateMutability": "view",
      "type": "function"
    },
    {
      "constant": true,
      "inputs": [],
      "name": "houseCount",
      "outputs": [
        {
          "name": "",
          "type": "uint256"
        }
      ],
      "payable": false,
      "stateMutability": "view",
      "type": "function"
    },
    {
      "constant": false,
      "inputs": [
        {
          "name": "_id",
          "type": "uint256"
        }
      ],
      "name": "buy",
      "outputs": [],
      "payable": true,
      "stateMutability": "payable",
      "type": "function"
    },
    {
      "inputs": [],
      "payable": false,
      "stateMutability": "nonpayable",
      "type": "constructor"
    }
  ],
  "bytecode": "0x6060604052341561000f57600080fd5b6105c38061001e6000396000f300606060405260043610610062576000357c0100000000000000000000000000000000000000000000000000000000900463ffffffff1680636d070def14610067578063aeda852f146100a4578063bd74f8b114610166578063d96a094a1461018f575b600080fd5b341561007257600080fd5b6100a2600480803560001916906020019091908035600019169060200190919080359060200190919050506101a7565b005b34156100af57600080fd5b6100c560048080359060200190919050506102fb565b60405180878152602001866000191660001916815260200185600019166000191681526020018481526020018373ffffffffffffffffffffffffffffffffffffffff1673ffffffffffffffffffffffffffffffffffffffff1681526020018273ffffffffffffffffffffffffffffffffffffffff1673ffffffffffffffffffffffffffffffffffffffff168152602001965050505050505060405180910390f35b341561017157600080fd5b610179610377565b6040518082815260200191505060405180910390f35b6101a5600480803590602001909190505061037d565b005b600080815480929190600101919050555060c060405190810160405280600054815260200184600019168152602001836000191681526020018281526020013373ffffffffffffffffffffffffffffffffffffffff168152602001600073ffffffffffffffffffffffffffffffffffffffff1681525060016000805481526020019081526020016000206000820151816000015560208201518160010190600019169055604082015181600201906000191690556060820151816003015560808201518160040160006101000a81548173ffffffffffffffffffffffffffffffffffffffff021916908373ffffffffffffffffffffffffffffffffffffffff16021790555060a08201518160050160006101000a81548173ffffffffffffffffffffffffffffffffffffffff021916908373ffffffffffffffffffffffffffffffffffffffff160217905550905050505050565b60016020528060005260406000206000915090508060000154908060010154908060020154908060030154908060040160009054906101000a900473ffffffffffffffffffffffffffffffffffffffff16908060050160009054906101000a900473ffffffffffffffffffffffffffffffffffffffff16905086565b60005481565b60006001600083815260200190815260200160002060040160009054906101000a900473ffffffffffffffffffffffffffffffffffffffff1673ffffffffffffffffffffffffffffffffffffffff16141515156103d957600080fd5b60006001600083815260200190815260200160002060050160009054906101000a900473ffffffffffffffffffffffffffffffffffffffff1673ffffffffffffffffffffffffffffffffffffffff1614151561043457600080fd5b6001600082815260200190815260200160002060040160009054906101000a900473ffffffffffffffffffffffffffffffffffffffff1673ffffffffffffffffffffffffffffffffffffffff163373ffffffffffffffffffffffffffffffffffffffff16141515156104a557600080fd5b6001600082815260200190815260200160002060030154341415156104c957600080fd5b336001600083815260200190815260200160002060050160006101000a81548173ffffffffffffffffffffffffffffffffffffffff021916908373ffffffffffffffffffffffffffffffffffffffff1602179055506001600082815260200190815260200160002060040160009054906101000a900473ffffffffffffffffffffffffffffffffffffffff1673ffffffffffffffffffffffffffffffffffffffff166108fc349081150290604051600060405180830381858888f19350505050151561059457600080fd5b505600a165627a7a7230582003b0622aa42ba6254ee76a31e16c2f46b9a0e6750fa967fbf89ec53160e8a96e0029",
  "source": "pragma solidity ^0.4.2;\r\n\r\ncontract RealEstate {\r\n    \r\n    struct House {\r\n        uint id;\r\n        bytes32 name;\r\n        bytes32 location;\r\n        uint256 price;\r\n        address seller;\r\n        address buyer;\r\n    }\r\n    \r\n    uint public houseCount;\r\n    mapping(uint => House) public houses;\r\n    \r\n    function RealEstate () public {      \r\n    }\r\n    \r\n    function addHouse (bytes32 _name, bytes32 _location, uint256 _price) public {\r\n        houseCount++;\r\n        houses[houseCount] = House(houseCount, _name, _location, _price, msg.sender, 0x0);\r\n    }\r\n\r\n    function buy(uint _id) payable public {\r\n        require(houses[_id].seller != 0x0);\r\n        require(houses[_id].buyer == 0x0);\r\n        require(msg.sender != houses[_id].seller);\r\n        require(msg.value == houses[_id].price);\r\n        houses[_id].buyer = msg.sender;\r\n        houses[_id].seller.transfer(msg.value);\r\n    }\r\n    \r\n}\r\n",
  "sourcePath": "F:\\Programming\\Demo-Blockchain\\dapp-project\\contracts\\RealEstate.sol",
  "compiler": {
    "name": "solc",
    "version": "0.4.18+commit.9cf6e910.Emscripten.clang"
  },
  "schemaVersion": "1.0.1",
  "updatedAt": "2018-03-09T08:12:16.409Z"
}