{
  "contractName": "CandidateContract",
  "abi": [
    {
      "constant": true,
      "inputs": [
        {
          "name": "_candidateId",
          "type": "uint256"
        }
      ],
      "name": "getCandidateDetails",
      "outputs": [
        {
          "name": "",
          "type": "bytes32"
        },
        {
          "name": "",
          "type": "bytes32"
        },
        {
          "name": "",
          "type": "bytes32"
        },
        {
          "name": "",
          "type": "uint256"
        }
      ],
      "payable": false,
      "stateMutability": "view",
      "type": "function"
    },
    {
      "constant": false,
      "inputs": [
        {
          "name": "_candidateId",
          "type": "uint256"
        }
      ],
      "name": "setCandidateId",
      "outputs": [
        {
          "name": "",
          "type": "address"
        }
      ],
      "payable": false,
      "stateMutability": "nonpayable",
      "type": "function"
    },
    {
      "constant": false,
      "inputs": [
        {
          "name": "_name",
          "type": "bytes32"
        },
        {
          "name": "_dateOfBirth",
          "type": "bytes32"
        },
        {
          "name": "_standFor",
          "type": "bytes32"
        },
        {
          "name": "_votesCount",
          "type": "uint256"
        }
      ],
      "name": "setCandidateDetails",
      "outputs": [
        {
          "name": "firstName",
          "type": "bytes32"
        },
        {
          "name": "lastName",
          "type": "bytes32"
        },
        {
          "name": "location",
          "type": "bytes32"
        },
        {
          "name": "age",
          "type": "uint256"
        }
      ],
      "payable": false,
      "stateMutability": "nonpayable",
      "type": "function"
    },
    {
      "constant": true,
      "inputs": [],
      "name": "getAllAddresses",
      "outputs": [
        {
          "name": "",
          "type": "address[]"
        }
      ],
      "payable": false,
      "stateMutability": "view",
      "type": "function"
    },
    {
      "constant": false,
      "inputs": [
        {
          "name": "_firstName",
          "type": "bytes32"
        },
        {
          "name": "_lastName",
          "type": "bytes32"
        },
        {
          "name": "_location",
          "type": "bytes32"
        },
        {
          "name": "_age",
          "type": "uint256"
        }
      ],
      "name": "enterAsCandidate",
      "outputs": [],
      "payable": false,
      "stateMutability": "nonpayable",
      "type": "function"
    },
    {
      "inputs": [],
      "payable": false,
      "stateMutability": "nonpayable",
      "type": "constructor"
    }
  ],
  "bytecode": "0x6060604052341561000f57600080fd5b6101f38061001e6000396000f300606060405260043610610057576000357c0100000000000000000000000000000000000000000000000000000000900463ffffffff16806327f9fd501461005c5780633982da02146100c0578063a1c63769146100e3575b600080fd5b341561006757600080fd5b61007d600480803590602001909190505061012d565b6040518085600019166000191681526020018460001916600019168152602001836000191660001916815260200182815260200194505050505060405180910390f35b34156100cb57600080fd5b6100e1600480803590602001909190505061016e565b005b34156100ee57600080fd5b61012b6004808035600019169060200190919080356000191690602001909190803560001916906020019091908035906020019091905050610178565b005b600080600080600060016000878152602001908152602001600020905080600001548160010154826002015483600301549450945094509450509193509193565b8060008190555050565b60006001600080548152602001908152602001600020905084816000018160001916905550838160010181600019169055508281600201816000191690555081816003018190555050505050505600a165627a7a723058202fbac83a5a1dd61982fe6e87cf284188b9f0c5adb8e5c95ed688433f06105aa90029",
  "source": "pragma solidity ^0.4.18;\n\ncontract CandidateContract {\n    uint candidateId;\n    \n    struct CandidateDetails {\n        bytes32 name;\n        bytes32 dateOfBirth;\n        bytes32 standFor;\n        uint votesCount;\n    }\n    \n    mapping (uint => CandidateDetails) candidates;\n    \n    function setCandidateId (uint _candidateId) public {\n        candidateId = _candidateId;\n    }\n    \n    function setCandidateDetails (\n        bytes32 _name,\n        bytes32 _dateOfBirth,\n        bytes32 _standFor,\n        uint _votesCount\n    ) public {\n        var candidateObject = candidates[candidateId];\n        candidateObject.name = _name;\n        candidateObject.dateOfBirth = _dateOfBirth;\n        candidateObject.standFor = _standFor;\n        candidateObject.votesCount = _votesCount;\n    }\n    \n    function getCandidateDetails (uint _candidateId) public view returns (\n        bytes32,\n        bytes32,\n        bytes32,\n        uint \n    ) {\n        var candidateObject = candidates[_candidateId];\n        return (\n            candidateObject.name,\n            candidateObject.dateOfBirth,\n            candidateObject.standFor,\n            candidateObject.votesCount\n        );\n    }\n}\n\n",
  "sourcePath": "F:\\Programming\\BlockChain Works\\voting-react-truffle\\contracts\\CandidateContract.sol",
  "compiler": {
    "name": "solc",
    "version": "0.4.18+commit.9cf6e910.Emscripten.clang"
  },
  "schemaVersion": "1.0.1",
  "updatedAt": "2018-02-17T09:32:38.359Z"
}