{
  "contractName": "CandidateContract",
  "abi": [
    {
      "constant": true,
      "inputs": [
        {
          "name": "_candidateId",
          "type": "uint256"
        }
      ],
      "name": "getcandidateId",
      "outputs": [
        {
          "name": "id",
          "type": "uint256"
        },
        {
          "name": "",
          "type": "bytes32"
        },
        {
          "name": "",
          "type": "bytes32"
        },
        {
          "name": "",
          "type": "uint256"
        }
      ],
      "payable": false,
      "stateMutability": "view",
      "type": "function"
    },
    {
      "constant": true,
      "inputs": [
        {
          "name": "_candidateId",
          "type": "uint256"
        }
      ],
      "name": "getCandidateDetails",
      "outputs": [
        {
          "name": "",
          "type": "bytes32"
        },
        {
          "name": "",
          "type": "bytes32"
        },
        {
          "name": "",
          "type": "bytes32"
        },
        {
          "name": "",
          "type": "uint256"
        }
      ],
      "payable": false,
      "stateMutability": "view",
      "type": "function"
    },
    {
      "constant": true,
      "inputs": [
        {
          "name": "",
          "type": "uint256"
        },
        {
          "name": "_dateOfBirth",
          "type": "bytes32"
        },
        {
          "name": "_standFor",
          "type": "bytes32"
        },
        {
          "name": "_votesCount",
          "type": "uint256"
        }
      ],
      "name": "candidates",
      "outputs": [
        {
          "name": "name",
          "type": "bytes32"
        },
        {
          "name": "dateOfBirth",
          "type": "bytes32"
        },
        {
          "name": "standFor",
          "type": "bytes32"
        },
        {
          "name": "votesCount",
          "type": "uint256"
        }
      ],
      "payable": false,
      "stateMutability": "view",
      "type": "function"
    },
    {
      "constant": false,
      "inputs": [
        {
          "name": "_candidateId",
          "type": "uint256"
        },
        {
          "name": "_dateOfBirth",
          "type": "bytes32"
        },
        {
          "name": "_standFor",
          "type": "bytes32"
        },
        {
          "name": "_votesCount",
          "type": "uint256"
        }
      ],
      "name": "setCandidateId",
      "outputs": [
        {
          "name": "",
          "type": "address[]"
        }
      ],
      "payable": false,
      "stateMutability": "nonpayable",
      "type": "function"
    },
    {
      "constant": false,
      "inputs": [
        {
          "name": "_name",
          "type": "bytes32"
        },
        {
          "name": "_dateOfBirth",
          "type": "bytes32"
        },
        {
          "name": "_standFor",
          "type": "bytes32"
        },
        {
          "name": "_votesCount",
          "type": "uint256"
        }
      ],
      "name": "setCandidateDetails",
      "outputs": [],
      "payable": false,
      "stateMutability": "nonpayable",
      "type": "function"
    },
    {
      "inputs": [],
      "payable": false,
      "stateMutability": "nonpayable",
      "type": "constructor"
    }
  ],
  "bytecode": "0x6060604052341561000f57600080fd5b6102cf8061001e6000396000f30060606040526004361061006d576000357c0100000000000000000000000000000000000000000000000000000000900463ffffffff168063031078701461007257806327f9fd501461009b5780633477ee2e146100ff5780633982da0214610163578063a1c6376914610186575b600080fd5b341561007d57600080fd5b6100856101d0565b6040518082815260200191505060405180910390f35b34156100a657600080fd5b6100bc60048080359060200190919050506101d9565b6040518085600019166000191681526020018460001916600019168152602001836000191660001916815260200182815260200194505050505060405180910390f35b341561010a57600080fd5b610120600480803590602001909190505061021a565b6040518085600019166000191681526020018460001916600019168152602001836000191660001916815260200182815260200194505050505060405180910390f35b341561016e57600080fd5b610184600480803590602001909190505061024a565b005b341561019157600080fd5b6101ce6004808035600019169060200190919080356000191690602001909190803560001916906020019091908035906020019091905050610254565b005b60008054905090565b600080600080600060016000878152602001908152602001600020905080600001548160010154826002015483600301549450945094509450509193509193565b60016020528060005260406000206000915090508060000154908060010154908060020154908060030154905084565b8060008190555050565b60006001600080548152602001908152602001600020905084816000018160001916905550838160010181600019169055508281600201816000191690555081816003018190555050505050505600a165627a7a723058205634ed18628d787ab94aba48cdbcaea5f7beebdc4dc06112e1062e4a70d93dcb0029",
  "source": "pragma solidity ^0.4.18;\n\ncontract CandidateContract {\n    uint candidateId;\n    \n    struct CandidateDetails {\n        bytes32 name;\n        bytes32 dateOfBirth;\n        bytes32 standFor;\n        uint votesCount;\n    }\n    \n    mapping (uint => CandidateDetails) public candidates;\n    \n    function setCandidateId (uint _candidateId) public {\n        candidateId = _candidateId;\n    }\n\n    function getcandidateId () public view returns (uint id) {\n        return candidateId;\n    }\n    \n    function setCandidateDetails (\n        bytes32 _name,\n        bytes32 _dateOfBirth,\n        bytes32 _standFor,\n        uint _votesCount\n    ) public \n    {\n        var candidateObject = candidates[candidateId];\n        candidateObject.name = _name;\n        candidateObject.dateOfBirth = _dateOfBirth;\n        candidateObject.standFor = _standFor;\n        candidateObject.votesCount = _votesCount;\n    }\n    \n    function getCandidateDetails (uint _candidateId) public view returns (\n        bytes32,\n        bytes32,\n        bytes32,\n        uint \n    ) {\n        var candidateObject = candidates[_candidateId];\n        return (\n            candidateObject.name,\n            candidateObject.dateOfBirth,\n            candidateObject.standFor,\n            candidateObject.votesCount\n        );\n    }\n}\n\n",
  "sourcePath": "F:\\Programming\\BlockChain Works\\voting-react-truffle\\contracts\\CandidateContract.sol",
  "compiler": {
    "name": "solc",
    "version": "0.4.18+commit.9cf6e910.Emscripten.clang"
  },
  "schemaVersion": "1.0.1",
  "updatedAt": "2018-02-19T10:28:44.210Z"
}