{
  "contractName": "CandidateContract",
  "abi": [
    {
      "constant": true,
      "inputs": [
        {
          "name": "_addressForCandidate",
          "type": "address"
        }
      ],
      "name": "getCandidateDetails",
      "outputs": [
        {
          "name": "_firstName",
          "type": "bytes32"
        },
        {
          "name": "_lastName",
          "type": "bytes32"
        },
        {
          "name": "_location",
          "type": "bytes32"
        },
        {
          "name": "_age",
          "type": "uint256"
        }
      ],
      "payable": false,
      "stateMutability": "view",
      "type": "function"
    },
    {
      "constant": true,
      "inputs": [
        {
          "name": "",
          "type": "uint256"
        }
      ],
      "name": "candidatesAddress",
      "outputs": [
        {
          "name": "",
          "type": "address"
        }
      ],
      "payable": false,
      "stateMutability": "view",
      "type": "function"
    },
    {
      "constant": true,
      "inputs": [
        {
          "name": "",
          "type": "address"
        }
      ],
      "name": "candidates",
      "outputs": [
        {
          "name": "firstName",
          "type": "bytes32"
        },
        {
          "name": "lastName",
          "type": "bytes32"
        },
        {
          "name": "location",
          "type": "bytes32"
        },
        {
          "name": "age",
          "type": "uint256"
        }
      ],
      "payable": false,
      "stateMutability": "view",
      "type": "function"
    },
    {
      "constant": true,
      "inputs": [],
      "name": "getAllAddresses",
      "outputs": [
        {
          "name": "",
          "type": "address[]"
        }
      ],
      "payable": false,
      "stateMutability": "view",
      "type": "function"
    },
    {
      "constant": false,
      "inputs": [
        {
          "name": "_firstName",
          "type": "bytes32"
        },
        {
          "name": "_lastName",
          "type": "bytes32"
        },
        {
          "name": "_location",
          "type": "bytes32"
        },
        {
          "name": "_age",
          "type": "uint256"
        }
      ],
      "name": "enterAsCandidate",
      "outputs": [],
      "payable": false,
      "stateMutability": "nonpayable",
      "type": "function"
    },
    {
      "inputs": [],
      "payable": false,
      "stateMutability": "nonpayable",
      "type": "constructor"
    }
  ],
  "bytecode": "0x6060604052341561000f57600080fd5b336000806101000a81548173ffffffffffffffffffffffffffffffffffffffff021916908373ffffffffffffffffffffffffffffffffffffffff1602179055506106118061005e6000396000f30060606040526004361061006d576000357c0100000000000000000000000000000000000000000000000000000000900463ffffffff16806353ac5dc3146100725780635f1125ed146100ec5780638ab66a901461014f5780639516a104146101c9578063c6220e7214610233575b600080fd5b341561007d57600080fd5b6100a9600480803573ffffffffffffffffffffffffffffffffffffffff1690602001909190505061027d565b6040518085600019166000191681526020018460001916600019168152602001836000191660001916815260200182815260200194505050505060405180910390f35b34156100f757600080fd5b61010d60048080359060200190919050506102ea565b604051808273ffffffffffffffffffffffffffffffffffffffff1673ffffffffffffffffffffffffffffffffffffffff16815260200191505060405180910390f35b341561015a57600080fd5b610186600480803573ffffffffffffffffffffffffffffffffffffffff16906020019091905050610329565b6040518085600019166000191681526020018460001916600019168152602001836000191660001916815260200182815260200194505050505060405180910390f35b34156101d457600080fd5b6101dc610359565b6040518080602001828103825283818151815260200191508051906020019060200280838360005b8381101561021f578082015181840152602081019050610204565b505050509050019250505060405180910390f35b341561023e57600080fd5b61027b6004808035600019169060200190919080356000191690602001909190803560001916906020019091908035906020019091905050610448565b005b6000806000806000600160008773ffffffffffffffffffffffffffffffffffffffff1673ffffffffffffffffffffffffffffffffffffffff168152602001908152602001600020905080600001548160010154826002015483600301549450945094509450509193509193565b6002818154811015156102f957fe5b90600052602060002090016000915054906101000a900473ffffffffffffffffffffffffffffffffffffffff1681565b60016020528060005260406000206000915090508060000154908060010154908060020154908060030154905084565b610361610580565b6000809054906101000a900473ffffffffffffffffffffffffffffffffffffffff1673ffffffffffffffffffffffffffffffffffffffff163373ffffffffffffffffffffffffffffffffffffffff161415156103bc57600080fd5b600280548060200260200160405190810160405280929190818152602001828054801561043e57602002820191906000526020600020905b8160009054906101000a900473ffffffffffffffffffffffffffffffffffffffff1673ffffffffffffffffffffffffffffffffffffffff16815260200190600101908083116103f4575b5050505050905090565b60008060009054906101000a900473ffffffffffffffffffffffffffffffffffffffff1673ffffffffffffffffffffffffffffffffffffffff163373ffffffffffffffffffffffffffffffffffffffff161415156104a557600080fd5b600160003373ffffffffffffffffffffffffffffffffffffffff1673ffffffffffffffffffffffffffffffffffffffff16815260200190815260200160002090508481600001816000191690555083816001018160001916905550828160020181600019169055508181600301819055506002805480600101828161052a9190610594565b9160005260206000209001600033909190916101000a81548173ffffffffffffffffffffffffffffffffffffffff021916908373ffffffffffffffffffffffffffffffffffffffff160217905550505050505050565b602060405190810160405280600081525090565b8154818355818115116105bb578183600052602060002091820191016105ba91906105c0565b5b505050565b6105e291905b808211156105de5760008160009055506001016105c6565b5090565b905600a165627a7a7230582010793da018af6b9641abf9d92e9567c9caa147fbc19afe645eea7dd347fd38fa0029",
  "source": "pragma solidity ^0.4.18;\n\ncontract CandidateContract {\n    \n    struct Candidate {\n        bytes32 firstName;\n        bytes32 lastName;\n        bytes32 location;\n        uint age;\n    }\n    \n    address owner;\n    mapping (address => Candidate) public candidates;\n    address[] public candidatesAddress;\n    \n    modifier isOwner {\n        require(msg.sender == owner);\n        _;\n    }\n    \n    function CandidateContract () public {\n        owner = msg.sender;\n    }\n    \n    \n    function enterAsCandidate (\n        bytes32 _firstName,\n        bytes32 _lastName,\n        bytes32 _location,\n        uint _age\n    ) isOwner public \n    {\n        var candidatesObject = candidates[msg.sender];\n        candidatesObject.firstName = _firstName;\n        candidatesObject.lastName = _lastName;\n        candidatesObject.location = _location;\n        candidatesObject.age = _age;\n        candidatesAddress.push(msg.sender);\n    }\n    \n    function getCandidateDetails(address _addressForCandidate) \n        public view returns (\n            bytes32 _firstName,\n            bytes32 _lastName,\n            bytes32 _location,\n            uint _age\n        ) {\n            var addr = candidates[_addressForCandidate];\n            return (\n                addr.firstName,\n                addr.lastName,\n                addr.location,\n                addr.age\n            );\n        }\n    \n    function getAllAddresses () isOwner public view returns (address[]) {\n        return candidatesAddress;\n    }\n    \n}",
  "sourcePath": "F:\\Programming\\BlockChain Works\\letsvote - Copy\\contracts\\CandidateContract.sol",
  "compiler": {
    "name": "solc",
    "version": "0.4.18+commit.9cf6e910.Emscripten.clang"
  },
  "schemaVersion": "1.0.1",
  "updatedAt": "2018-02-14T07:24:13.524Z"
}