{
  "contractName": "CandidateContract",
  "abi": [
    {
      "constant": true,
      "inputs": [
        {
          "name": "_candidateId",
          "type": "uint256"
        }
      ],
      "name": "getcandidateId",
      "outputs": [
        {
          "name": "id",
          "type": "uint256"
        },
        {
          "name": "",
          "type": "bytes32"
        },
        {
          "name": "",
          "type": "bytes32"
        },
        {
          "name": "",
          "type": "uint256"
        }
      ],
      "payable": false,
      "stateMutability": "view",
      "type": "function"
    },
    {
      "constant": true,
      "inputs": [
        {
          "name": "_candidateId",
          "type": "uint256"
        }
      ],
      "name": "getCandidateDetails",
      "outputs": [
        {
          "name": "",
          "type": "bytes32"
        },
        {
          "name": "",
          "type": "bytes32"
        },
        {
          "name": "",
          "type": "bytes32"
        },
        {
          "name": "",
          "type": "uint256"
        }
      ],
      "payable": false,
      "stateMutability": "view",
      "type": "function"
    },
    {
      "constant": true,
      "inputs": [
        {
          "name": "",
          "type": "uint256"
        },
        {
          "name": "_dateOfBirth",
          "type": "bytes32"
        },
        {
          "name": "_standFor",
          "type": "bytes32"
        },
        {
          "name": "_votesCount",
          "type": "uint256"
        }
      ],
      "name": "candidates",
      "outputs": [
        {
          "name": "name",
          "type": "bytes32"
        },
        {
          "name": "dateOfBirth",
          "type": "bytes32"
        },
        {
          "name": "standFor",
          "type": "bytes32"
        },
        {
          "name": "votesCount",
          "type": "uint256"
        }
      ],
      "payable": false,
      "stateMutability": "view",
      "type": "function"
    },
    {
      "constant": false,
      "inputs": [
        {
          "name": "_candidateId",
          "type": "uint256"
        },
        {
          "name": "_dateOfBirth",
          "type": "bytes32"
        },
        {
          "name": "_standFor",
          "type": "bytes32"
        },
        {
          "name": "_votesCount",
          "type": "uint256"
        }
      ],
      "name": "idSetCandidate",
      "outputs": [
        {
          "name": "",
          "type": "address[]"
        }
      ],
      "payable": false,
      "stateMutability": "nonpayable",
      "type": "function"
    },
    {
      "constant": false,
      "inputs": [
        {
          "name": "_name",
          "type": "bytes32"
        },
        {
          "name": "_dateOfBirth",
          "type": "bytes32"
        },
        {
          "name": "_standFor",
          "type": "bytes32"
        },
        {
          "name": "_votesCount",
          "type": "uint256"
        }
      ],
      "name": "setCandidateDetails",
      "outputs": [],
      "payable": false,
      "stateMutability": "nonpayable",
      "type": "function"
    },
    {
      "inputs": [
        {
          "name": "_candidateId",
          "type": "uint256"
        }
      ],
      "payable": false,
      "stateMutability": "nonpayable",
      "type": "function",
      "constant": false,
      "name": "candidateIdSetter",
      "outputs": []
    }
  ],
  "bytecode": "0x6060604052341561000f57600080fd5b6103078061001e6000396000f300606060405260043610610078576000357c0100000000000000000000000000000000000000000000000000000000900463ffffffff168063031078701461007d57806327f9fd50146100a65780633477ee2e1461010a5780635f94358b1461016e578063a1c6376914610191578063a556c31a146101db575b600080fd5b341561008857600080fd5b6100906101fe565b6040518082815260200191505060405180910390f35b34156100b157600080fd5b6100c76004808035906020019091905050610207565b6040518085600019166000191681526020018460001916600019168152602001836000191660001916815260200182815260200194505050505060405180910390f35b341561011557600080fd5b61012b6004808035906020019091905050610248565b6040518085600019166000191681526020018460001916600019168152602001836000191660001916815260200182815260200194505050505060405180910390f35b341561017957600080fd5b61018f6004808035906020019091905050610278565b005b341561019c57600080fd5b6101d96004808035600019169060200190919080356000191690602001909190803560001916906020019091908035906020019091905050610282565b005b34156101e657600080fd5b6101fc60048080359060200190919050506102d1565b005b60008054905090565b600080600080600060016000878152602001908152602001600020905080600001548160010154826002015483600301549450945094509450509193509193565b60016020528060005260406000206000915090508060000154908060010154908060020154908060030154905084565b8060008190555050565b6000600160008054815260200190815260200160002090508481600001816000191690555083816001018160001916905550828160020181600019169055508181600301819055505050505050565b80600081905550505600a165627a7a7230582038b75554a1151419b19b8398dec8e439fde83516945d719cdcca42aaf77c67e60029",
  "source": "pragma solidity ^0.4.18;\r\n\r\ncontract CandidateContract {\r\n    uint candidateId;\r\n    \r\n    struct CandidateDetails {\r\n        bytes32 name;\r\n        bytes32 dateOfBirth;\r\n        bytes32 standFor;\r\n        uint votesCount;\r\n    }\r\n    \r\n    mapping (uint => CandidateDetails) public candidates;\r\n    \r\n    function idSetCandidate (uint _candidateId) public {\r\n        candidateId = _candidateId;\r\n    }\r\n\r\n    function candidateIdSetter (uint _candidateId) public {\r\n        candidateId = _candidateId;\r\n    }\r\n\r\n    function getcandidateId () public view returns (uint id) {\r\n        return candidateId;\r\n    }\r\n    \r\n    function setCandidateDetails (\r\n        bytes32 _name,\r\n        bytes32 _dateOfBirth,\r\n        bytes32 _standFor,\r\n        uint _votesCount\r\n    ) public \r\n    {\r\n        var candidateObject = candidates[candidateId];\r\n        candidateObject.name = _name;\r\n        candidateObject.dateOfBirth = _dateOfBirth;\r\n        candidateObject.standFor = _standFor;\r\n        candidateObject.votesCount = _votesCount;\r\n    }\r\n    \r\n    function getCandidateDetails (uint _candidateId) public view returns (\r\n        bytes32,\r\n        bytes32,\r\n        bytes32,\r\n        uint \r\n    ) {\r\n        var candidateObject = candidates[_candidateId];\r\n        return (\r\n            candidateObject.name,\r\n            candidateObject.dateOfBirth,\r\n            candidateObject.standFor,\r\n            candidateObject.votesCount\r\n        );\r\n    }\r\n}\r\n\r\n",
  "sourcePath": "F:\\Programming\\Demo-Blockchain\\voting-react-truffle\\contracts\\CandidateContract.sol",
  "compiler": {
    "name": "solc",
    "version": "0.4.18+commit.9cf6e910.Emscripten.clang"
  },
  "schemaVersion": "1.0.1",
  "updatedAt": "2018-02-20T15:04:13.092Z"
}