{
  "contractName": "VotersContract",
  "abi": [
    {
      "constant": true,
      "inputs": [
        {
          "name": "voterIdToGet",
          "type": "uint256"
        }
      ],
      "name": "getVoterDetails",
      "outputs": [
        {
          "name": "",
          "type": "bytes32"
        },
        {
          "name": "",
          "type": "bytes32"
        },
        {
          "name": "",
          "type": "bool"
        }
      ],
      "payable": false,
      "stateMutability": "view",
      "type": "function"
    },
    {
      "constant": false,
      "inputs": [
        {
          "name": "_name",
          "type": "bytes32"
        },
        {
          "name": "_dateOfBirth",
          "type": "bytes32"
        },
        {
          "name": "_voted",
          "type": "bool"
        }
      ],
      "name": "setVoterDetails",
      "outputs": [],
      "payable": false,
      "stateMutability": "nonpayable",
      "type": "function"
    },
    {
      "constant": false,
      "inputs": [
        {
          "name": "_voterId",
          "type": "uint256"
        }
      ],
      "name": "setVoterId",
      "outputs": [],
      "payable": false,
      "stateMutability": "nonpayable",
      "type": "function"
    }
  ],
  "bytecode": "0x6060604052341561000f57600080fd5b6101e68061001e6000396000f300606060405260043610610057576000357c0100000000000000000000000000000000000000000000000000000000900463ffffffff1680637b8fe1661461005c578063a347199d146100b5578063a60067b3146100f4575b600080fd5b341561006757600080fd5b61007d6004808035906020019091905050610117565b604051808460001916600019168152602001836000191660001916815260200182151515158152602001935050505060405180910390f35b34156100c057600080fd5b6100f260048080356000191690602001909190803560001916906020019091908035151590602001909190505061015c565b005b34156100ff57600080fd5b61011560048080359060200190919050506101b0565b005b600080600080600160008681526020019081526020016000209050806000015481600101548260020160009054906101000a900460ff16935093509350509193909250565b6000600160008054815260200190815260200160002090508381600001816000191690555082816001018160001916905550818160020160006101000a81548160ff02191690831515021790555050505050565b80600081905550505600a165627a7a723058205d1ed15d2362fcf65faab7cef256347671f039d3ab67f366784d721b53092c460029",
  "source": "pragma solidity ^0.4.18;\n\ncontract VotersContract {\n    uint voterId;\n    \n    struct VoterDetails {\n        bytes32 name;\n        bytes32 dateOfBirth;\n        bool voted;\n    }\n    \n    mapping (uint => VoterDetails) voters;\n    \n    function setVoterId (uint _voterId) public {\n        voterId = _voterId;\n    }  \n    \n    function setVoterDetails (bytes32 _name, bytes32 _dateOfBirth, bool _voted) public {\n        var voterObject = voters[voterId];\n        voterObject.name = _name;\n        voterObject.dateOfBirth = _dateOfBirth;\n        voterObject.voted = _voted;\n    }\n    \n    function getVoterDetails (uint voterIdToGet) public view returns (bytes32, bytes32, bool) {\n       var voterObject = voters[voterIdToGet];\n       return (voterObject.name, voterObject.dateOfBirth, voterObject.voted); \n    }\n}",
  "sourcePath": "F:\\Programming\\BlockChain Works\\voting-react-truffle\\contracts\\VotersContract.sol",
  "compiler": {
    "name": "solc",
    "version": "0.4.18+commit.9cf6e910.Emscripten.clang"
  },
  "schemaVersion": "1.0.1",
  "updatedAt": "2018-02-17T05:49:24.226Z"
}