{
  "contractName": "VotersContract",
  "abi": [
    {
      "constant": true,
      "inputs": [
        {
          "name": "voterIdToGet",
          "type": "uint256"
        }
      ],
      "name": "getVoterDetails",
      "outputs": [
        {
          "name": "",
          "type": "bytes32"
        },
        {
          "name": "",
          "type": "bytes32"
        },
        {
          "name": "",
          "type": "bool"
        }
      ],
      "payable": false,
      "stateMutability": "view",
      "type": "function"
    },
    {
      "constant": false,
      "inputs": [
        {
          "name": "_name",
          "type": "bytes32"
        },
        {
          "name": "_dateOfBirth",
          "type": "bytes32"
        },
        {
          "name": "_voted",
          "type": "bool"
        }
      ],
      "name": "setVoterDetails",
      "outputs": [],
      "payable": false,
      "stateMutability": "nonpayable",
      "type": "function"
    },
    {
      "constant": false,
      "inputs": [
        {
          "name": "_voterId",
          "type": "uint256"
        }
      ],
      "name": "setVoterId",
      "outputs": [],
      "payable": false,
      "stateMutability": "nonpayable",
      "type": "function"
    },
    {
      "constant": true,
      "inputs": [
        {
          "name": "",
          "type": "uint256"
        }
      ],
      "name": "voters",
      "outputs": [
        {
          "name": "name",
          "type": "bytes32"
        },
        {
          "name": "dateOfBirth",
          "type": "bytes32"
        },
        {
          "name": "voted",
          "type": "bool"
        }
      ],
      "payable": false,
      "stateMutability": "view",
      "type": "function"
    }
  ],
  "bytecode": "0x6060604052341561000f57600080fd5b6102818061001e6000396000f300606060405260043610610062576000357c0100000000000000000000000000000000000000000000000000000000900463ffffffff1680637b8fe16614610067578063a347199d146100c0578063a60067b3146100ff578063da58c7d914610122575b600080fd5b341561007257600080fd5b610088600480803590602001909190505061017b565b604051808460001916600019168152602001836000191660001916815260200182151515158152602001935050505060405180910390f35b34156100cb57600080fd5b6100fd6004808035600019169060200190919080356000191690602001909190803515159060200190919050506101c0565b005b341561010a57600080fd5b6101206004808035906020019091905050610214565b005b341561012d57600080fd5b610143600480803590602001909190505061021e565b604051808460001916600019168152602001836000191660001916815260200182151515158152602001935050505060405180910390f35b600080600080600160008681526020019081526020016000209050806000015481600101548260020160009054906101000a900460ff16935093509350509193909250565b6000600160008054815260200190815260200160002090508381600001816000191690555082816001018160001916905550818160020160006101000a81548160ff02191690831515021790555050505050565b8060008190555050565b60016020528060005260406000206000915090508060000154908060010154908060020160009054906101000a900460ff169050835600a165627a7a72305820ec17b731833b880a28224ec23de5285298a879c879eab37bf27218924b2dae3d0029",
  "source": "pragma solidity ^0.4.18;\n\ncontract VotersContract {\n    uint voterId;\n    \n    struct VoterDetails {\n        bytes32 name;\n        bytes32 dateOfBirth;\n        bool voted;\n    }\n    \n    mapping (uint => VoterDetails) public voters;\n    \n    function setVoterId (uint _voterId) public {\n        voterId = _voterId;\n    }  \n    \n    function setVoterDetails (bytes32 _name, bytes32 _dateOfBirth, bool _voted) public {\n        var voterObject = voters[voterId];\n        voterObject.name = _name;\n        voterObject.dateOfBirth = _dateOfBirth;\n        voterObject.voted = _voted;\n    }\n    \n    function getVoterDetails (uint voterIdToGet) public view returns (bytes32, bytes32, bool) {\n       var voterObject = voters[voterIdToGet];\n       return (voterObject.name, voterObject.dateOfBirth, voterObject.voted); \n    }\n}",
  "sourcePath": "F:\\Programming\\BlockChain Works\\voting-react-truffle\\contracts\\VotersContract.sol",
  "compiler": {
    "name": "solc",
    "version": "0.4.18+commit.9cf6e910.Emscripten.clang"
  },
  "schemaVersion": "1.0.1",
  "updatedAt": "2018-02-17T09:32:38.365Z"
}