{
  "contractName": "VotingContract",
  "abi": [
    {
      "constant": true,
      "inputs": [],
      "name": "startDate",
      "outputs": [
        {
          "name": "",
          "type": "bytes32"
        }
      ],
      "payable": false,
      "stateMutability": "view",
      "type": "function"
    },
    {
      "constant": false,
      "inputs": [
        {
          "name": "_nameOfVoting",
          "type": "bytes32"
        }
      ],
      "name": "setVotingName",
      "outputs": [],
      "payable": false,
      "stateMutability": "nonpayable",
      "type": "function"
    },
    {
      "constant": false,
      "inputs": [
        {
          "name": "_startDate",
          "type": "bytes32"
        }
      ],
      "name": "setStartDate",
      "outputs": [],
      "payable": false,
      "stateMutability": "nonpayable",
      "type": "function"
    },
    {
      "constant": true,
      "inputs": [],
      "name": "nameOfVoting",
      "outputs": [
        {
          "name": "",
          "type": "bytes32"
        }
      ],
      "payable": false,
      "stateMutability": "view",
      "type": "function"
    },
    {
      "constant": false,
      "inputs": [
        {
          "name": "_endDate",
          "type": "bytes32"
        }
      ],
      "name": "setEndDate",
      "outputs": [],
      "payable": false,
      "stateMutability": "nonpayable",
      "type": "function"
    },
    {
      "constant": true,
      "inputs": [],
      "name": "endDate",
      "outputs": [
        {
          "name": "",
          "type": "bytes32"
        }
      ],
      "payable": false,
      "stateMutability": "view",
      "type": "function"
    },
    {
      "constant": true,
      "inputs": [],
      "name": "endDate",
      "outputs": [
        {
          "name": "",
          "type": "bytes32"
        }
      ],
      "payable": false,
      "stateMutability": "nonpayable",
      "type": "constructor"
    }
  ],
  "bytecode": "0x6060604052341561000f57600080fd5b336000806101000a81548173ffffffffffffffffffffffffffffffffffffffff021916908373ffffffffffffffffffffffffffffffffffffffff1602179055506102fe8061005e6000396000f300606060405260043610610078576000357c0100000000000000000000000000000000000000000000000000000000900463ffffffff1680630b97bc861461007d5780630c71c26b146100ae57806328e75542146100d5578063324a36cc146100fc5780634ba14efd1461012d578063c24a0f8b14610154575b600080fd5b341561008857600080fd5b610090610185565b60405180826000191660001916815260200191505060405180910390f35b34156100b957600080fd5b6100d360048080356000191690602001909190505061018b565b005b34156100e057600080fd5b6100fa6004808035600019169060200190919050506101f4565b005b341561010757600080fd5b61010f61025d565b60405180826000191660001916815260200191505060405180910390f35b341561013857600080fd5b610152600480803560001916906020019091905050610263565b005b341561015f57600080fd5b6101676102cc565b60405180826000191660001916815260200191505060405180910390f35b60025481565b6000809054906101000a900473ffffffffffffffffffffffffffffffffffffffff1673ffffffffffffffffffffffffffffffffffffffff163373ffffffffffffffffffffffffffffffffffffffff161415156101e657600080fd5b806001816000191690555050565b6000809054906101000a900473ffffffffffffffffffffffffffffffffffffffff1673ffffffffffffffffffffffffffffffffffffffff163373ffffffffffffffffffffffffffffffffffffffff1614151561024f57600080fd5b806002816000191690555050565b60015481565b6000809054906101000a900473ffffffffffffffffffffffffffffffffffffffff1673ffffffffffffffffffffffffffffffffffffffff163373ffffffffffffffffffffffffffffffffffffffff161415156102be57600080fd5b806003816000191690555050565b600354815600a165627a7a72305820f5db114300a4ca7dbb96ae40675a8d13f1e7074d1be4af2b9ff5c1fd2bfb40320029",
  "source": "pragma solidity ^0.4.18;\r\n\r\ncontract VotingContract {\r\n    address owner;\r\n    bytes32 public nameOfVoting;\r\n    bytes32 public startDate;\r\n    bytes32 public endDate;\r\n    \r\n    modifier isOwner() {\r\n        require(msg.sender == owner);\r\n        _;\r\n    }\r\n    \r\n    function VotingContract () public {\r\n        owner = msg.sender;\r\n    }\r\n    \r\n    function setVotingName (bytes32 _nameOfVoting) isOwner public {\r\n        nameOfVoting = _nameOfVoting;\r\n    }   \r\n\r\n    // Timer functions ...\r\n    function setStartDate (bytes32 _startDate) isOwner public {\r\n        startDate = _startDate;\r\n    }  \r\n \r\n    function setEndDate (bytes32 _endDate) isOwner public {\r\n        endDate = _endDate;\r\n    }\r\n   \r\n}",
  "sourcePath": "F:\\Programming\\Demo-Blockchain\\voting-react-truffle\\contracts\\VotingContract.sol",
  "compiler": {
    "name": "solc",
    "version": "0.4.18+commit.9cf6e910.Emscripten.clang"
  },
  "schemaVersion": "1.0.1",
  "updatedAt": "2018-02-20T15:04:13.053Z"
}