{
  "contractName": "VotingContract",
  "abi": [
    {
      "constant": true,
      "inputs": [],
      "name": "startDate",
      "outputs": [
        {
          "name": "",
          "type": "bytes32"
        }
      ],
      "payable": false,
      "stateMutability": "view",
      "type": "function"
    },
    {
      "constant": false,
      "inputs": [
        {
          "name": "_nameOfVoting",
          "type": "bytes32"
        }
      ],
      "name": "setVotingName",
      "outputs": [],
      "payable": false,
      "stateMutability": "nonpayable",
      "type": "function"
    },
    {
      "constant": false,
      "inputs": [
        {
          "name": "_startDate",
          "type": "bytes32"
        }
      ],
      "name": "setStartDate",
      "outputs": [],
      "payable": false,
      "stateMutability": "nonpayable",
      "type": "function"
    },
    {
      "constant": true,
      "inputs": [],
      "name": "nameOfVoting",
      "outputs": [
        {
          "name": "",
          "type": "bytes32"
        }
      ],
      "payable": false,
      "stateMutability": "view",
      "type": "function"
    },
    {
      "constant": false,
      "inputs": [
        {
          "name": "_endDate",
          "type": "bytes32"
        }
      ],
      "name": "setEndDate",
      "outputs": [],
      "payable": false,
      "stateMutability": "nonpayable",
      "type": "function"
    },
    {
      "constant": false,
      "inputs": [],
      "name": "Voting",
      "outputs": [],
      "payable": false,
      "stateMutability": "nonpayable",
      "type": "function"
    },
    {
      "constant": true,
      "inputs": [],
      "name": "endDate",
      "outputs": [
        {
          "name": "",
          "type": "bytes32"
        }
      ],
      "payable": false,
      "stateMutability": "view",
      "type": "function"
    }
  ],
  "bytecode": "0x6060604052341561000f57600080fd5b6103608061001e6000396000f300606060405260043610610083576000357c0100000000000000000000000000000000000000000000000000000000900463ffffffff1680630b97bc86146100885780630c71c26b146100b957806328e75542146100e0578063324a36cc146101075780634ba14efd14610138578063b96f8a391461015f578063c24a0f8b14610174575b600080fd5b341561009357600080fd5b61009b6101a5565b60405180826000191660001916815260200191505060405180910390f35b34156100c457600080fd5b6100de6004808035600019169060200190919050506101ab565b005b34156100eb57600080fd5b610105600480803560001916906020019091905050610214565b005b341561011257600080fd5b61011a61027d565b60405180826000191660001916815260200191505060405180910390f35b341561014357600080fd5b61015d600480803560001916906020019091905050610283565b005b341561016a57600080fd5b6101726102ec565b005b341561017f57600080fd5b61018761032e565b60405180826000191660001916815260200191505060405180910390f35b60025481565b6000809054906101000a900473ffffffffffffffffffffffffffffffffffffffff1673ffffffffffffffffffffffffffffffffffffffff163373ffffffffffffffffffffffffffffffffffffffff1614151561020657600080fd5b806001816000191690555050565b6000809054906101000a900473ffffffffffffffffffffffffffffffffffffffff1673ffffffffffffffffffffffffffffffffffffffff163373ffffffffffffffffffffffffffffffffffffffff1614151561026f57600080fd5b806002816000191690555050565b60015481565b6000809054906101000a900473ffffffffffffffffffffffffffffffffffffffff1673ffffffffffffffffffffffffffffffffffffffff163373ffffffffffffffffffffffffffffffffffffffff161415156102de57600080fd5b806003816000191690555050565b336000806101000a81548173ffffffffffffffffffffffffffffffffffffffff021916908373ffffffffffffffffffffffffffffffffffffffff160217905550565b600354815600a165627a7a72305820520e5e14dd4d01ab61f0ce15f22e589a7c63c2445d3766ce2f46675563fdb1830029",
  "source": "pragma solidity ^0.4.18;\n\ncontract VotingContract {\n    address owner;\n    bytes32 public nameOfVoting;\n    bytes32 public startDate;\n    bytes32 public endDate;\n    \n    modifier isOwner() {\n        require(msg.sender == owner);\n        _;\n    }\n    \n    function Voting () public {\n        owner = msg.sender;\n    }\n    \n    function setVotingName (bytes32 _nameOfVoting) isOwner public {\n        nameOfVoting = _nameOfVoting;\n    }   \n\n    // Timer functions ...\n    function setStartDate (bytes32 _startDate) isOwner public {\n        startDate = _startDate;\n    }  \n \n    function setEndDate (bytes32 _endDate) isOwner public {\n        endDate = _endDate;\n    }\n   \n}",
  "sourcePath": "F:\\Programming\\BlockChain Works\\voting-react-truffle\\contracts\\VotingContract.sol",
  "compiler": {
    "name": "solc",
    "version": "0.4.18+commit.9cf6e910.Emscripten.clang"
  },
  "schemaVersion": "1.0.1",
  "updatedAt": "2018-02-17T09:32:38.371Z"
}