{
  "contractName": "Election",
  "abi": [
    {
      "constant": false,
      "inputs": [
        {
          "name": "_candidateId",
          "type": "uint256"
        }
      ],
      "name": "vote",
      "outputs": [],
      "payable": false,
      "stateMutability": "nonpayable",
      "type": "function"
    },
    {
      "constant": false,
      "inputs": [
        {
          "name": "_name",
          "type": "bytes32"
        }
      ],
      "name": "addCandidate",
      "outputs": [],
      "payable": false,
      "stateMutability": "nonpayable",
      "type": "function"
    },
    {
      "constant": true,
      "inputs": [],
      "name": "candidatesCount",
      "outputs": [
        {
          "name": "",
          "type": "uint256"
        }
      ],
      "payable": false,
      "stateMutability": "view",
      "type": "function"
    },
    {
      "constant": true,
      "inputs": [
        {
          "name": "",
          "type": "uint256"
        }
      ],
      "name": "candidates",
      "outputs": [
        {
          "name": "id",
          "type": "uint256"
        },
        {
          "name": "name",
          "type": "bytes32"
        },
        {
          "name": "voteCount",
          "type": "uint256"
        }
      ],
      "payable": false,
      "stateMutability": "view",
      "type": "function"
    },
    {
      "constant": true,
      "inputs": [
        {
          "name": "",
          "type": "address"
        }
      ],
      "name": "voters",
      "outputs": [
        {
          "name": "",
          "type": "bool"
        }
      ],
      "payable": false,
      "stateMutability": "view",
      "type": "function"
    },
    {
      "inputs": [],
      "payable": false,
      "stateMutability": "nonpayable",
      "type": "constructor"
    },
    {
      "anonymous": false,
      "inputs": [
        {
          "indexed": true,
          "name": "_candidateId",
          "type": "uint256"
        }
      ],
      "name": "votedEvent",
      "type": "event"
    }
  ],
  "bytecode": "0x6060604052341561000f57600080fd5b33600360006101000a81548173ffffffffffffffffffffffffffffffffffffffff021916908373ffffffffffffffffffffffffffffffffffffffff16021790555061044e8061005f6000396000f30060606040526004361061006d576000357c0100000000000000000000000000000000000000000000000000000000900463ffffffff1680630121b93f14610072578063230d6ed8146100955780632d35a8a2146100bc5780633477ee2e146100e5578063a3ec138d14610132575b600080fd5b341561007d57600080fd5b6100936004808035906020019091905050610183565b005b34156100a057600080fd5b6100ba600480803560001916906020019091905050610302565b005b34156100c757600080fd5b6100cf6103d2565b6040518082815260200191505060405180910390f35b34156100f057600080fd5b61010660048080359060200190919050506103d8565b604051808481526020018360001916600019168152602001828152602001935050505060405180910390f35b341561013d57600080fd5b610169600480803573ffffffffffffffffffffffffffffffffffffffff16906020019091905050610402565b604051808215151515815260200191505060405180910390f35b6000803373ffffffffffffffffffffffffffffffffffffffff1673ffffffffffffffffffffffffffffffffffffffff16815260200190815260200160002060009054906101000a900460ff161515156101db57600080fd5b600360009054906101000a900473ffffffffffffffffffffffffffffffffffffffff1673ffffffffffffffffffffffffffffffffffffffff163373ffffffffffffffffffffffffffffffffffffffff161415151561023857600080fd5b60008111801561024a57506002548111155b151561025557600080fd5b60016000803373ffffffffffffffffffffffffffffffffffffffff1673ffffffffffffffffffffffffffffffffffffffff16815260200190815260200160002060006101000a81548160ff0219169083151502179055506001600082815260200190815260200160002060020160008154809291906001019190505550807ffff3c900d938d21d0990d786e819f29b8d05c1ef587b462b939609625b684b1660405160405180910390a250565b600360009054906101000a900473ffffffffffffffffffffffffffffffffffffffff1673ffffffffffffffffffffffffffffffffffffffff163373ffffffffffffffffffffffffffffffffffffffff1614151561035e57600080fd5b600260008154809291906001019190505550606060405190810160405280600254815260200182600019168152602001600081525060016000600254815260200190815260200160002060008201518160000155602082015181600101906000191690556040820151816002015590505050565b60025481565b60016020528060005260406000206000915090508060000154908060010154908060020154905083565b60006020528060005260406000206000915054906101000a900460ff16815600a165627a7a723058207ecb5e56f1887635211a3e32dd6ed687fbb7ee948dcd84c8f93dc80e22583c980029",
  "source": "pragma solidity ^0.4.2;\r\n\r\ncontract Election {\r\n    \r\n    struct Candidate {\r\n        uint id;\r\n        bytes32 name;\r\n        uint voteCount;\r\n    }\r\n\r\n    mapping(address => bool) public voters;\r\n    mapping(uint => Candidate) public candidates;\r\n\r\n    uint public candidatesCount;\r\n    address owner;\r\n\r\n    event votedEvent (\r\n        uint indexed _candidateId\r\n    );\r\n    \r\n    function Election () public {\r\n        owner = msg.sender;\r\n    }\r\n    \r\n    modifier isOwner {\r\n        require(msg.sender == owner);\r\n        _;\r\n    }\r\n\r\n    function addCandidate (bytes32 _name) isOwner public {\r\n        candidatesCount ++;\r\n        candidates[candidatesCount] = Candidate(candidatesCount, _name, 0);\r\n    }\r\n\r\n    function vote (uint _candidateId) public {\r\n        require(!voters[msg.sender]);\r\n        require(msg.sender != owner);\r\n        require(_candidateId > 0 && _candidateId <= candidatesCount);\r\n        voters[msg.sender] = true;\r\n        candidates[_candidateId].voteCount ++;\r\n        votedEvent(_candidateId);\r\n    }\r\n}",
  "sourcePath": "F:\\Programming\\Demo-Blockchain\\election-demo\\contracts\\Election.sol",
  "compiler": {
    "name": "solc",
    "version": "0.4.18+commit.9cf6e910.Emscripten.clang"
  },
  "schemaVersion": "1.0.1",
  "updatedAt": "2018-02-21T08:21:22.741Z"
}