{
  "contractName": "Showroom",
  "abi": [
    {
      "constant": true,
      "inputs": [],
      "name": "getName",
      "outputs": [
        {
          "name": "",
          "type": "string"
        }
      ],
      "payable": false,
      "stateMutability": "view",
      "type": "function"
    },
    {
      "constant": false,
      "inputs": [
        {
          "name": "location",
          "type": "string"
        }
      ],
      "name": "setLocation",
      "outputs": [
        {
          "name": "",
          "type": "string"
        }
      ],
      "payable": false,
      "stateMutability": "nonpayable",
      "type": "function"
    },
    {
      "constant": true,
      "inputs": [],
      "name": "getLocation",
      "outputs": [
        {
          "name": "",
          "type": "string"
        }
      ],
      "payable": false,
      "stateMutability": "view",
      "type": "function"
    }
  ],
  "bytecode": "0x60606040526040805190810160405280601381526020017f5072616d6573682042616a7261636861727961000000000000000000000000008152506000908051906020019061004f929190610060565b50341561005b57600080fd5b610105565b828054600181600116156101000203166002900490600052602060002090601f016020900481019282601f106100a157805160ff19168380011785556100cf565b828001600101855582156100cf579182015b828111156100ce5782518255916020019190600101906100b3565b5b5090506100dc91906100e0565b5090565b61010291905b808211156100fe5760008160009055506001016100e6565b5090565b90565b610424806101146000396000f300606060405260043610610057576000357c0100000000000000000000000000000000000000000000000000000000900463ffffffff16806317d7de7c1461005c578063827bfbdf146100ea578063ce2ce3fc14610147575b600080fd5b341561006757600080fd5b61006f6101d5565b6040518080602001828103825283818151815260200191508051906020019080838360005b838110156100af578082015181840152602081019050610094565b50505050905090810190601f1680156100dc5780820380516001836020036101000a031916815260200191505b509250505060405180910390f35b34156100f557600080fd5b610145600480803590602001908201803590602001908080601f0160208091040260200160405190810160405280939291908181526020018383808284378201915050505050509190505061027d565b005b341561015257600080fd5b61015a610297565b6040518080602001828103825283818151815260200191508051906020019080838360005b8381101561019a57808201518184015260208101905061017f565b50505050905090810190601f1680156101c75780820380516001836020036101000a031916815260200191505b509250505060405180910390f35b6101dd61033f565b60008054600181600116156101000203166002900480601f0160208091040260200160405190810160405280929190818152602001828054600181600116156101000203166002900480156102735780601f1061024857610100808354040283529160200191610273565b820191906000526020600020905b81548152906001019060200180831161025657829003601f168201915b5050505050905090565b8060019080519060200190610293929190610353565b5050565b61029f61033f565b60018054600181600116156101000203166002900480601f0160208091040260200160405190810160405280929190818152602001828054600181600116156101000203166002900480156103355780601f1061030a57610100808354040283529160200191610335565b820191906000526020600020905b81548152906001019060200180831161031857829003601f168201915b5050505050905090565b602060405190810160405280600081525090565b828054600181600116156101000203166002900490600052602060002090601f016020900481019282601f1061039457805160ff19168380011785556103c2565b828001600101855582156103c2579182015b828111156103c15782518255916020019190600101906103a6565b5b5090506103cf91906103d3565b5090565b6103f591905b808211156103f15760008160009055506001016103d9565b5090565b905600a165627a7a72305820fe15bc0062a059b64bc2d84404b79ac1ae5ff1967a6eb400ab08e55048a3f7d70029",
  "source": "pragma solidity ^0.4.17;\r\n\r\ncontract Showroom {\r\n    string name = \"Pramesh Bajracharya\";\r\n    string locationValue;\r\n    function getName() view public returns (string) {\r\n        return name;\r\n    }\r\n    function setLocation(string location) public {\r\n        locationValue = location;\r\n    }\r\n    function getLocation() view public returns(string) {\r\n        return locationValue;\r\n    }\r\n}",
  "sourcePath": "F:\\Programming\\BlockChain Works\\boilerplate-truffle\\contracts\\Showroom.sol",
  "compiler": {
    "name": "solc",
    "version": "0.4.18+commit.9cf6e910.Emscripten.clang"
  },
  "schemaVersion": "1.0.1",
  "updatedAt": "2018-01-08T17:39:16.325Z"
}