{
  "contractName": "Voting",
  "abi": [
    {
      "constant": true,
      "inputs": [],
      "name": "getValue",
      "outputs": [
        {
          "name": "",
          "type": "bytes32"
        }
      ],
      "payable": false,
      "stateMutability": "view",
      "type": "function"
    },
    {
      "constant": false,
      "inputs": [
        {
          "name": "number",
          "type": "bytes32"
        }
      ],
      "name": "setValue",
      "outputs": [
        {
          "name": "",
          "type": "uint256"
        }
      ],
      "payable": false,
      "stateMutability": "nonpayable",
      "type": "function"
    },
    {
      "constant": false,
      "inputs": [
        {
          "name": "number",
          "type": "uint256"
        }
      ],
      "name": "setValue",
      "outputs": [
        {
          "name": "",
          "type": "uint256"
        }
      ],
      "payable": false,
      "stateMutability": "nonpayable",
      "type": "function"
    },
    {
      "inputs": [
        {
          "name": "newCandidate",
          "type": "bytes32"
        }
      ],
      "payable": true,
      "stateMutability": "payable",
      "type": "function",
      "constant": false,
      "name": "setCandidate",
      "outputs": []
    },
    {
      "inputs": [
        {
          "name": "candidate",
          "type": "bytes32"
        }
      ],
      "payable": false,
      "stateMutability": "nonpayable",
      "type": "function",
      "constant": false,
      "name": "setVote",
      "outputs": []
    },
    {
      "inputs": [],
      "payable": false,
      "stateMutability": "nonpayable",
      "type": "constructor"
    }
  ],
  "bytecode": "0x6060604052341561000f57600080fd5b60e38061001d6000396000f3006060604052600436106049576000357c0100000000000000000000000000000000000000000000000000000000900463ffffffff1680632096525514604e57806358825b1014607c575b600080fd5b3415605857600080fd5b605e60a0565b60405180826000191660001916815260200191505060405180910390f35b3415608657600080fd5b609e60048080356000191690602001909190505060a9565b005b60008054905090565b8060008160001916905550505600a165627a7a723058206af172adf55c6a2c738546b4b0e2b0cdae44abdd1b0a1ca95eb6b5e9266f720c0029",
  "source": "pragma solidity ^0.4.18;\n\ncontract Voting {\n    bytes32 num;\n    function setValue (bytes32 number) public {\n        num = number;\n    }\n    function getValue () public view returns (bytes32) {\n        return num;\n    }\n}",
  "sourcePath": "F:\\Programming\\BlockChain Works\\letsvote - Copy\\contracts\\Voting.sol",
  "compiler": {
    "name": "solc",
    "version": "0.4.18+commit.9cf6e910.Emscripten.clang"
  },
  "schemaVersion": "1.0.1",
  "updatedAt": "2018-02-12T08:39:23.753Z"
}