{
  "contractName": "Voting",
  "abi": [
    {
      "constant": true,
      "inputs": [],
      "name": "getAllCandidates",
      "outputs": [
        {
          "name": "",
          "type": "bytes32[]"
        }
      ],
      "payable": false,
      "stateMutability": "view",
      "type": "function"
    },
    {
      "constant": true,
      "inputs": [
        {
          "name": "candidate",
          "type": "bytes32"
        }
      ],
      "name": "getVote",
      "outputs": [
        {
          "name": "",
          "type": "uint256"
        }
      ],
      "payable": false,
      "stateMutability": "view",
      "type": "function"
    },
    {
      "constant": false,
      "inputs": [
        {
          "name": "newCandidate",
          "type": "bytes32"
        }
      ],
      "name": "setCandidate",
      "outputs": [],
      "payable": true,
      "stateMutability": "payable",
      "type": "function"
    },
    {
      "inputs": [
        {
          "name": "candidate",
          "type": "bytes32"
        }
      ],
      "payable": false,
      "stateMutability": "nonpayable",
      "type": "function",
      "constant": false,
      "name": "setVote",
      "outputs": []
    },
    {
      "inputs": [],
      "payable": false,
      "stateMutability": "nonpayable",
      "type": "constructor"
    }
  ],
  "bytecode": "0x6060604052341561000f57600080fd5b336000806101000a81548173ffffffffffffffffffffffffffffffffffffffff021916908373ffffffffffffffffffffffffffffffffffffffff1602179055506103308061005e6000396000f300606060405260043610610062576000357c0100000000000000000000000000000000000000000000000000000000900463ffffffff1680632e6997fe1461006757806351550869146100d1578063d6042aa41461010c578063f85008a214610128575b600080fd5b341561007257600080fd5b61007a61014f565b6040518080602001828103825283818151815260200191508051906020019060200280838360005b838110156100bd5780820151818401526020810190506100a2565b505050509050019250505060405180910390f35b34156100dc57600080fd5b6100f66004808035600019169060200190919050506101b1565b6040518082815260200191505060405180910390f35b6101266004808035600019169060200190919050506101d6565b005b341561013357600080fd5b61014d60048080356000191690602001909190505061025e565b005b61015761029f565b60018054806020026020016040519081016040528092919081815260200182805480156101a757602002820191906000526020600020905b8154600019168152602001906001019080831161018f575b5050505050905090565b6000600260008360001916600019168152602001908152602001600020549050919050565b6000809054906101000a900473ffffffffffffffffffffffffffffffffffffffff1673ffffffffffffffffffffffffffffffffffffffff163373ffffffffffffffffffffffffffffffffffffffff16141561025b576001805480600101828161023f91906102b3565b9160005260206000209001600083909190915090600019169055505b50565b600160026000836000191660001916815260200190815260200160002054016002600083600019166000191681526020019081526020016000208190555050565b602060405190810160405280600081525090565b8154818355818115116102da578183600052602060002091820191016102d991906102df565b5b505050565b61030191905b808211156102fd5760008160009055506001016102e5565b5090565b905600a165627a7a7230582071fd6e6a4767240b1d8f816d8a59163b868748d9fa5aa8d35a23efa0bffff3200029",
  "source": "pragma solidity ^0.4.18;\n\ncontract Voting {\n    address mainAddress;\n    bytes32[] candidateNames;\n    mapping(bytes32 => uint) candidateVotes;\n\n    function Voting() public {\n        mainAddress = msg.sender;\n    }\n    modifier isMainAddress {\n        if (msg.sender == mainAddress) {\n            _;\n        }\n    }\n    \n    function getAllCandidates() public view returns (bytes32[]) {\n        return candidateNames;\n    }\n    \n    function setCandidate(bytes32 newCandidate) isMainAddress payable public {\n        candidateNames.push(newCandidate);\n    }\n    \n    function setVote(bytes32 candidate) public {\n        candidateVotes[candidate] = candidateVotes[candidate] + 1;\n    }\n\n    function getVote(bytes32 candidate) public view returns (uint) {\n        return candidateVotes[candidate];\n    }\n}",
  "sourcePath": "F:\\Programming\\BlockChain Works\\letsvote\\contracts\\Voting.sol",
  "compiler": {
    "name": "solc",
    "version": "0.4.18+commit.9cf6e910.Emscripten.clang"
  },
  "schemaVersion": "1.0.1",
  "updatedAt": "2018-01-14T04:51:26.446Z"
}