{
  "contractName": "Voting",
  "abi": [
    {
      "constant": true,
      "inputs": [],
      "name": "getAllCandidates",
      "outputs": [
        {
          "name": "",
          "type": "bytes32[]"
        }
      ],
      "payable": false,
      "stateMutability": "view",
      "type": "function"
    },
    {
      "constant": false,
      "inputs": [
        {
          "name": "newCandidate",
          "type": "bytes32"
        }
      ],
      "name": "setCandidate",
      "outputs": [],
      "payable": false,
      "stateMutability": "nonpayable",
      "type": "function"
    },
    {
      "constant": false,
      "inputs": [
        {
          "name": "candidate",
          "type": "bytes32"
        }
      ],
      "name": "setVote",
      "outputs": [],
      "payable": false,
      "stateMutability": "nonpayable",
      "type": "function"
    },
    {
      "inputs": [],
      "payable": false,
      "stateMutability": "nonpayable",
      "type": "constructor"
    }
  ],
  "bytecode": "0x6060604052341561000f57600080fd5b336000806101000a81548173ffffffffffffffffffffffffffffffffffffffff021916908373ffffffffffffffffffffffffffffffffffffffff16021790555061027a8061005e6000396000f300606060405260043610610057576000357c0100000000000000000000000000000000000000000000000000000000900463ffffffff1680632e6997fe1461005c578063d6042aa4146100c6578063f85008a2146100ed575b600080fd5b341561006757600080fd5b61006f610114565b6040518080602001828103825283818151815260200191508051906020019060200280838360005b838110156100b2578082015181840152602081019050610097565b505050509050019250505060405180910390f35b34156100d157600080fd5b6100eb600480803560001916906020019091905050610176565b005b34156100f857600080fd5b6101126004808035600019169060200190919050506101a8565b005b61011c6101e9565b600180548060200260200160405190810160405280929190818152602001828054801561016c57602002820191906000526020600020905b81546000191681526020019060010190808311610154575b5050505050905090565b6001805480600101828161018a91906101fd565b91600052602060002090016000839091909150906000191690555050565b600160036000836000191660001916815260200190815260200160002054016003600083600019166000191681526020019081526020016000208190555050565b602060405190810160405280600081525090565b815481835581811511610224578183600052602060002091820191016102239190610229565b5b505050565b61024b91905b8082111561024757600081600090555060010161022f565b5090565b905600a165627a7a72305820e03fb85bfed8a6cdf20f8e5d359f08d230097d2595680917e3431cf97eed07580029",
  "source": "pragma solidity ^0.4.18;\n\ncontract Voting {\n    address mainAddress;\n    bytes32[] candidateNames;\n    uint number;\n    mapping(bytes32 => uint) candidateVotes;\n\n    function Voting() public {\n        mainAddress = msg.sender;\n    }\n        \n    function getAllCandidates() public view returns (bytes32[]) {\n        return candidateNames;\n    }\n    \n    function setCandidate(bytes32 newCandidate) public {\n        candidateNames.push(newCandidate);\n    }\n    \n    function setVote(bytes32 candidate) public {\n        candidateVotes[candidate] = candidateVotes[candidate] + 1;\n    }\n}",
  "sourcePath": "F:\\Programming\\BlockChain Works\\letsvote\\contracts\\Voting.sol",
  "compiler": {
    "name": "solc",
    "version": "0.4.18+commit.9cf6e910.Emscripten.clang"
  },
  "schemaVersion": "1.0.1",
  "updatedAt": "2018-01-13T17:56:30.352Z"
}