{
  "contractName": "Voting",
  "abi": [
    {
      "constant": true,
      "inputs": [],
      "name": "getAllCandidates",
      "outputs": [
        {
          "name": "",
          "type": "bytes32[]"
        }
      ],
      "payable": false,
      "stateMutability": "view",
      "type": "function"
    },
    {
      "constant": false,
      "inputs": [
        {
          "name": "newCandidate",
          "type": "bytes32"
        }
      ],
      "name": "setCandidate",
      "outputs": [],
      "payable": false,
      "stateMutability": "nonpayable",
      "type": "function"
    },
    {
      "constant": false,
      "inputs": [
        {
          "name": "candidate",
          "type": "bytes32"
        }
      ],
      "name": "setVote",
      "outputs": [],
      "payable": false,
      "stateMutability": "nonpayable",
      "type": "function"
    },
    {
      "inputs": [],
      "payable": false,
      "stateMutability": "nonpayable",
      "type": "constructor"
    }
  ],
  "bytecode": "0x6060604052341561000f57600080fd5b336000806101000a81548173ffffffffffffffffffffffffffffffffffffffff021916908373ffffffffffffffffffffffffffffffffffffffff1602179055506102d08061005e6000396000f300606060405260043610610057576000357c0100000000000000000000000000000000000000000000000000000000900463ffffffff1680632e6997fe1461005c578063d6042aa4146100c6578063f85008a2146100ed575b600080fd5b341561006757600080fd5b61006f610114565b6040518080602001828103825283818151815260200191508051906020019060200280838360005b838110156100b2578082015181840152602081019050610097565b505050509050019250505060405180910390f35b34156100d157600080fd5b6100eb600480803560001916906020019091905050610176565b005b34156100f857600080fd5b6101126004808035600019169060200190919050506101fe565b005b61011c61023f565b600180548060200260200160405190810160405280929190818152602001828054801561016c57602002820191906000526020600020905b81546000191681526020019060010190808311610154575b5050505050905090565b6000809054906101000a900473ffffffffffffffffffffffffffffffffffffffff1673ffffffffffffffffffffffffffffffffffffffff163373ffffffffffffffffffffffffffffffffffffffff1614156101fb57600180548060010182816101df9190610253565b9160005260206000209001600083909190915090600019169055505b50565b600160026000836000191660001916815260200190815260200160002054016002600083600019166000191681526020019081526020016000208190555050565b602060405190810160405280600081525090565b81548183558181151161027a57818360005260206000209182019101610279919061027f565b5b505050565b6102a191905b8082111561029d576000816000905550600101610285565b5090565b905600a165627a7a72305820bd564dff2cad9990b8cf6c8223dabb7ce8f458c103f76f508b1ac36840dff4dd0029",
  "source": "pragma solidity ^0.4.18;\n\ncontract Voting {\n    address mainAddress;\n    bytes32[] candidateNames;\n    mapping(bytes32 => uint) candidateVotes;\n\n    function Voting() public {\n        mainAddress = msg.sender;\n    }\n    modifier isMainAddress {\n        if (msg.sender == mainAddress) {\n            _;\n        }\n    }\n    \n    function getAllCandidates() public view returns (bytes32[]) {\n        return candidateNames;\n    }\n    \n    function setCandidate(bytes32 newCandidate) isMainAddress public {\n        candidateNames.push(newCandidate);\n    }\n    \n    function setVote(bytes32 candidate) public {\n        candidateVotes[candidate] = candidateVotes[candidate] + 1;\n    }\n}",
  "sourcePath": "F:\\Programming\\BlockChain Works\\letsvote\\contracts\\Voting.sol",
  "compiler": {
    "name": "solc",
    "version": "0.4.18+commit.9cf6e910.Emscripten.clang"
  },
  "schemaVersion": "1.0.1",
  "updatedAt": "2018-01-13T15:45:35.961Z"
}