{
  "contractName": "Voting",
  "abi": [
    {
      "constant": true,
      "inputs": [],
      "name": "getAllCandidates",
      "outputs": [
        {
          "name": "",
          "type": "bytes32[]"
        }
      ],
      "payable": false,
      "stateMutability": "view",
      "type": "function"
    },
    {
      "constant": true,
      "inputs": [
        {
          "name": "candidate",
          "type": "bytes32"
        }
      ],
      "name": "validCandidate",
      "outputs": [
        {
          "name": "",
          "type": "bool"
        }
      ],
      "payable": false,
      "stateMutability": "view",
      "type": "function"
    },
    {
      "constant": true,
      "inputs": [
        {
          "name": "candidate",
          "type": "bytes32"
        }
      ],
      "name": "getVote",
      "outputs": [
        {
          "name": "",
          "type": "uint256"
        }
      ],
      "payable": false,
      "stateMutability": "view",
      "type": "function"
    },
    {
      "inputs": [
        {
          "name": "newCandidate",
          "type": "bytes32"
        }
      ],
      "payable": true,
      "stateMutability": "payable",
      "type": "function",
      "constant": false,
      "name": "setCandidate",
      "outputs": []
    },
    {
      "inputs": [
        {
          "name": "candidate",
          "type": "bytes32"
        }
      ],
      "payable": false,
      "stateMutability": "nonpayable",
      "type": "function",
      "constant": false,
      "name": "setVote",
      "outputs": []
    },
    {
      "inputs": [],
      "payable": false,
      "stateMutability": "nonpayable",
      "type": "constructor"
    }
  ],
  "bytecode": "0x6060604052341561000f57600080fd5b336000806101000a81548173ffffffffffffffffffffffffffffffffffffffff021916908373ffffffffffffffffffffffffffffffffffffffff1602179055506104028061005e6000396000f30060606040526004361061006d576000357c0100000000000000000000000000000000000000000000000000000000900463ffffffff1680632e6997fe14610072578063392e6678146100dc578063515508691461011b578063d6042aa414610156578063f85008a214610172575b600080fd5b341561007d57600080fd5b610085610199565b6040518080602001828103825283818151815260200191508051906020019060200280838360005b838110156100c85780820151818401526020810190506100ad565b505050509050019250505060405180910390f35b34156100e757600080fd5b6101016004808035600019169060200190919050506101fb565b604051808215151515815260200191505060405180910390f35b341561012657600080fd5b61014060048080356000191690602001909190505061025b565b6040518082815260200191505060405180910390f35b610170600480803560001916906020019091905050610294565b005b341561017d57600080fd5b61019760048080356000191690602001909190505061031c565b005b6101a1610371565b60018054806020026020016040519081016040528092919081815260200182805480156101f157602002820191906000526020600020905b815460001916815260200190600101908083116101d9575b5050505050905090565b600080600090505b60018054905081101561025057826000191660018281548110151561022457fe5b9060005260206000209001546000191614156102435760009150610255565b8080600101915050610203565b600191505b50919050565b6000610266826101fb565b151561027157600080fd5b600260008360001916600019168152602001908152602001600020549050919050565b6000809054906101000a900473ffffffffffffffffffffffffffffffffffffffff1673ffffffffffffffffffffffffffffffffffffffff163373ffffffffffffffffffffffffffffffffffffffff16141561031957600180548060010182816102fd9190610385565b9160005260206000209001600083909190915090600019169055505b50565b610325816101fb565b151561033057600080fd5b600160026000836000191660001916815260200190815260200160002054016002600083600019166000191681526020019081526020016000208190555050565b602060405190810160405280600081525090565b8154818355818115116103ac578183600052602060002091820191016103ab91906103b1565b5b505050565b6103d391905b808211156103cf5760008160009055506001016103b7565b5090565b905600a165627a7a723058201ce94862ba775a22fa36407d8f06ab851bba55a380224e94395424c184a5d9d20029",
  "source": "pragma solidity ^0.4.18;\n\ncontract Voting {\n    address mainAddress;\n    bytes32[] candidateNames;\n    mapping(bytes32 => uint) candidateVotes;\n\n    function Voting() public {\n        mainAddress = msg.sender;\n    }\n\n    modifier isMainAddress {\n        if (msg.sender == mainAddress) {\n            _;\n        }\n    }\n    \n    function getAllCandidates() public view returns (bytes32[]) {\n        return candidateNames;\n    }\n    \n    function setCandidate(bytes32 newCandidate) isMainAddress payable public {\n        candidateNames.push(newCandidate);\n    }\n    \n    function setVote(bytes32 candidate) public {\n        require(validCandidate(candidate));\n        candidateVotes[candidate] = candidateVotes[candidate] + 1;\n    }\n\n    function getVote(bytes32 candidate) public view returns (uint) {\n        require(validCandidate(candidate));\n        return candidateVotes[candidate];\n    }\n\n    function validCandidate(bytes32 candidate) view public returns (bool) {\n        for (uint i = 0; i < candidateNames.length; i++) {\n            if (candidateNames[i] == candidate) {\n                return false;\n            }\n        }\n        return true;\n    }\n}",
  "sourcePath": "F:\\Programming\\BlockChain Works\\letsvote\\contracts\\Voting.sol",
  "compiler": {
    "name": "solc",
    "version": "0.4.18+commit.9cf6e910.Emscripten.clang"
  },
  "schemaVersion": "1.0.1",
  "updatedAt": "2018-02-08T08:05:54.725Z"
}