{
  "contractName": "SimpleDemo",
  "abi": [
    {
      "constant": false,
      "inputs": [
        {
          "name": "receiver",
          "type": "address"
        },
        {
          "name": "amount",
          "type": "uint256"
        }
      ],
      "name": "sender",
      "outputs": [
        {
          "name": "",
          "type": "bool"
        }
      ],
      "payable": true,
      "stateMutability": "payable",
      "type": "function"
    },
    {
      "constant": true,
      "inputs": [
        {
          "name": "addr",
          "type": "address"
        }
      ],
      "name": "getBalance",
      "outputs": [
        {
          "name": "",
          "type": "uint256"
        }
      ],
      "payable": false,
      "stateMutability": "view",
      "type": "function"
    }
  ],
  "bytecode": "0x6060604052341561000f57600080fd5b6101ab8061001e6000396000f30060606040526004361061004c576000357c0100000000000000000000000000000000000000000000000000000000900463ffffffff16806338daa91514610051578063f8b2cb4f146100a0575b600080fd5b610086600480803573ffffffffffffffffffffffffffffffffffffffff169060200190919080359060200190919050506100ed565b604051808215151515815260200191505060405180910390f35b34156100ab57600080fd5b6100d7600480803573ffffffffffffffffffffffffffffffffffffffff1690602001909190505061015e565b6040518082815260200191505060405180910390f35b6000813373ffffffffffffffffffffffffffffffffffffffff163111151561011457600080fd5b8273ffffffffffffffffffffffffffffffffffffffff166108fc839081150290604051600060405180830381858888f19350505050151561015457600080fd5b6001905092915050565b60008173ffffffffffffffffffffffffffffffffffffffff163190509190505600a165627a7a7230582008e9a5e514cc8eb58016da6e25e6fff4116d2db036f95dd432d716f08021d2450029",
  "source": "pragma solidity ^0.4.14;\n\ncontract SimpleDemo {\n    function sender(address receiver, uint amount) public payable returns (bool) {\n        require(msg.sender.balance > amount);\n        receiver.transfer(amount);\n        return true;\n    }\n\n    function getBalance(address addr) public view returns (uint) {\n        return addr.balance;\n    }\n}\n",
  "sourcePath": "F:\\Programming\\BlockChain Works\\project demos\\contracts\\SimpleDemo.sol",
  "compiler": {
    "name": "solc",
    "version": "0.4.18+commit.9cf6e910.Emscripten.clang"
  },
  "schemaVersion": "1.0.1",
  "updatedAt": "2018-02-09T10:03:01.931Z"
}