{
  "contractName": "Todo",
  "abi": [
    {
      "constant": true,
      "inputs": [],
      "name": "getTodo",
      "outputs": [
        {
          "name": "",
          "type": "bytes32[]"
        }
      ],
      "payable": false,
      "stateMutability": "view",
      "type": "function"
    },
    {
      "constant": false,
      "inputs": [
        {
          "name": "todo",
          "type": "bytes32"
        }
      ],
      "name": "setTodo",
      "outputs": [],
      "payable": false,
      "stateMutability": "nonpayable",
      "type": "function"
    },
    {
      "inputs": [],
      "payable": false,
      "stateMutability": "nonpayable",
      "type": "constructor"
    }
  ],
  "bytecode": "0x6060604052341561000f57600080fd5b336000806101000a81548173ffffffffffffffffffffffffffffffffffffffff021916908373ffffffffffffffffffffffffffffffffffffffff1602179055506102b38061005e6000396000f30060606040526004361061004c576000357c0100000000000000000000000000000000000000000000000000000000900463ffffffff1680637fa1680a14610051578063a26703d1146100bb575b600080fd5b341561005c57600080fd5b6100646100e2565b6040518080602001828103825283818151815260200191508051906020019060200280838360005b838110156100a757808201518184015260208101905061008c565b505050509050019250505060405180910390f35b34156100c657600080fd5b6100e060048080356000191690602001909190505061019a565b005b6100ea610222565b3373ffffffffffffffffffffffffffffffffffffffff166000809054906101000a900473ffffffffffffffffffffffffffffffffffffffff1673ffffffffffffffffffffffffffffffffffffffff16141561019757600180548060200260200160405190810160405280929190818152602001828054801561018f57602002820191906000526020600020905b81546000191681526020019060010190808311610177575b505050505090505b90565b3373ffffffffffffffffffffffffffffffffffffffff166000809054906101000a900473ffffffffffffffffffffffffffffffffffffffff1673ffffffffffffffffffffffffffffffffffffffff16141561021f57600180548060010182816102039190610236565b9160005260206000209001600083909190915090600019169055505b50565b602060405190810160405280600081525090565b81548183558181151161025d5781836000526020600020918201910161025c9190610262565b5b505050565b61028491905b80821115610280576000816000905550600101610268565b5090565b905600a165627a7a723058205c2b2fd2ae070ab68e86316efaef5409ed615392fae7eb3b031bb8dac447b0f20029",
  "source": "pragma solidity ^0.4.17;\r\n\r\ncontract Todo {\r\n    address myAddress;\r\n    bytes32[] todos;\r\n\r\n    function Todo() public {\r\n        myAddress = msg.sender;\r\n    }\r\n    \r\n    modifier isMyAddress {\r\n        if (myAddress == msg.sender) {\r\n            _;\r\n        }\r\n    }\r\n\r\n    function setTodo(bytes32 todo) isMyAddress public {\r\n        todos.push(todo);\r\n    }\r\n\r\n    function getTodo() isMyAddress constant public returns (bytes32[]) {\r\n        return todos;\r\n    }\r\n}",
  "sourcePath": "F:\\Programming\\BlockChain Works\\todo-chain\\contracts\\Todo.sol",
  "compiler": {
    "name": "solc",
    "version": "0.4.18+commit.9cf6e910.Emscripten.clang"
  },
  "schemaVersion": "1.0.1",
  "updatedAt": "2018-01-10T15:19:13.021Z"
}